:020000040800F2
:100000000080012055020008A5020008A502000892
:10001000A5020008A5020008A502000800000000D3
:10002000000000000000000000000000A502000821
:10003000A502000800000000A5020008A5020008B3
:1000400000000000A5020008A5020008A5020008A3
:10005000A5020008A5020008A5020008A5020008E4
:10006000A5020008A5020008A5020008A5020008D4
:10007000A5020008A5020008A5020008A5020008C4
:10008000A5020008A5020008A50200080000000063
:10009000000000000000000000000000A5020008B1
:1000A000A5020008A5020008A5020008A502000894
:1000B000A5020008A5020008A5020008A502000884
:1000C000A5020008A5020008A5020008A502000874
:1000D000A5020008A5020008A50200080000000013
:1000E000A5020008A5020008A50200080000000003
:1000F000000000000000000000000000A502000851
:1001000000000000A5020008A5020008A5020008E2
:1001100000000000000000000000000000000000DF
:10012000A5020008A5020008A5020008A502000813
:10013000A502000800000000000000000000000010
:10014000000000000000000000000000A502000800
:10015000A5020008A5020008A5020008A5020008E3
:10016000A5020008A5020008000000000000000031
:10017000000000000000000000000000000000007F
:10018000000000000000000000000000000000006F
:04019000A5020008BC
:1001940010B5054C237833B9044B13B10448AFF3BD
:1001A40000800123237010BD000000200000000027
:1001B400F002000808B5034B1BB103490348AFF331
:1001C400008008BD0000000004000020F0020008C8
:1001D40080B400AF1B4B1B6B1A4A43F0010313633B
:1001E400184B1B6B174A43F004031363164B1B682D
:1001F400154A23F040631360134BDB68124A23F063
:100204004063D360104BDB680F4A43F08063D360D4
:100214000E4B1B680D4A43F4806313600A4B1B6941
:1002240003F40053002B06D1084B5B69074A43F0E3
:1002340020035361F2E7054B5B69044A23F0200372
:100244005361EBE70038024000080240000002401E
:100254000D488546AFF300800C480D490D4A002334
:1002640002E0D458C4500433C4188C42F9D30A4A67
:100274000A4C002301E013600432A242FBD300F0D5
:1002840011F8FFF7A5FFFEE7008001200000002021
:100294000000002010030008000000201C000020C3
:1002A400FEE7000070B50D4D0D4C641BA410002634
:1002B400A64209D10B4D0C4C00F018F8641BA41095
:1002C4000026A64205D170BD55F8043B9847013677
:1002D400EEE755F8043B98470136F2E708030008B7
:1002E40008030008080300080C030008F8B500BF61
:1002F400F8BC08BC9E467047F8B500BFF8BC08BC03
:040304009E4670475A
:04030800B90100082F
:04030C00950100084F
:040000050800025598
:00000001FF
