:020000040800F2
:1000000000800120B102000801030008010300087C
:1000100001030008010300080103000800000000BC
:1000200000000000000000000000000001030008C4
:10003000010300080000000001030008010300089C
:10004000000000000103000801030008010300088C
:100050000103000801030008010300080103000870
:100060000103000801030008010300080103000860
:100070000103000801030008010300080103000850
:10008000010300080103000801030008000000004C
:100090000000000000000000000000000103000854
:1000A0000103000801030008010300080103000820
:1000B0000103000801030008010300080103000810
:1000C0000103000801030008010300080103000800
:1000D00001030008010300080103000800000000FC
:1000E00001030008010300080103000800000000EC
:1000F00000000000000000000000000001030008F4
:1001000000000000010300080103000801030008CB
:1001100000000000000000000000000000000000DF
:10012000010300080103000801030008010300089F
:1001300001030008000000000000000000000000B3
:1001400000000000000000000000000001030008A3
:10015000010300080103000801030008010300086F
:100160000103000801030008000000000000000077
:10017000000000000000000000000000000000007F
:10018000000000000000000000000000000000006F
:04019000010300085F
:1001940010B5054C237833B9044B13B10448AFF3BD
:1001A40000800123237010BD000000200000000027
:1001B4004C03000808B5034B1BB103490348AFF3D4
:1001C400008008BD00000000040000204C0300086B
:1001D40080B485B000AF78600023FB6002E0FB6868
:1001E4000133FB607B68074A02FB03F31A46FB6892
:1001F4009342F4D300BF00BF1437BD465DF8047BBF
:10020400704700BF40420F0080B500AF234B1B6B0B
:10021400224A43F001031363204B1B6B1F4A43F034
:10022400040313631E4B1B681D4A63F04063136091
:100234001B4BDB681A4A43F08063D360194B1B687D
:10024400184A43F480631360164B164A5B68536084
:10025400134B1B6903F40053002B0CD1124B1B6886
:10026400002B0CBF01230023DBB21A460E4B1A608D
:100274000220FFF7ADFF0C4B1B68002B06D0094B87
:100284005B69084A43F020035361E1E7054B5B696E
:10029400044A23F020035361DAE700BF0038024028
:1002A40000080240000002401C0000200D48854662
:1002B400AFF300800C480D490D4A002302E0D458E6
:1002C400C4500433C4188C42F9D30A4A0A4C00239C
:1002D40001E013600432A242FBD300F011F8FFF7EF
:1002E40093FFFEE7008001200000002000000020B2
:1002F4006C0300080000002020000020FEE700003E
:1003040070B50D4D0D4C641BA4100026A64209D1F6
:100314000B4D0C4C00F018F8641BA4100026A642E8
:1003240005D170BD55F8043B98470136EEE755F802
:10033400043B98470136F2E76403000864030008AD
:100344006403000868030008F8B500BFF8BC08BCE3
:100354009E467047F8B500BFF8BC08BC9E4670477F
:04036400B9010008D3
:0403680095010008F3
:04000005080002B13C
:00000001FF
