:020000040800F2
:10000000008001208D020008DD020008DD020008EA
:10001000DD020008DD020008DD020008000000002B
:10002000000000000000000000000000DD020008E9
:10003000DD02000800000000DD020008DD0200080B
:1000400000000000DD020008DD020008DD020008FB
:10005000DD020008DD020008DD020008DD02000804
:10006000DD020008DD020008DD020008DD020008F4
:10007000DD020008DD020008DD020008DD020008E4
:10008000DD020008DD020008DD02000800000000BB
:10009000000000000000000000000000DD02000879
:1000A000DD020008DD020008DD020008DD020008B4
:1000B000DD020008DD020008DD020008DD020008A4
:1000C000DD020008DD020008DD020008DD02000894
:1000D000DD020008DD020008DD020008000000006B
:1000E000DD020008DD020008DD020008000000005B
:1000F000000000000000000000000000DD02000819
:1001000000000000DD020008DD020008DD0200083A
:1001100000000000000000000000000000000000DF
:10012000DD020008DD020008DD020008DD02000833
:10013000DD020008000000000000000000000000D8
:10014000000000000000000000000000DD020008C8
:10015000DD020008DD020008DD020008DD02000803
:10016000DD020008DD0200080000000000000000C1
:10017000000000000000000000000000000000007F
:10018000000000000000000000000000000000006F
:04019000DD02000884
:1001940010B5054C237833B9044B13B10448AFF3BD
:1001A40000800123237010BD000000200000000027
:1001B4002803000808B5034B1BB103490348AFF3F8
:1001C400008008BD0000000004000020280300088F
:1001D40080B487B000AF274B7B61274B3B617B69C1
:1001E4001B6843F480327B691A6000BF7B691B681B
:1001F40003F40033002BF9D03B691B6843F0010280
:100204003B691A603B691B6843F480023B691A60CE
:100214003B691B6843F000723B691A603B691B68C9
:1002240043F080623B691A60144BFB60FB681B68F7
:1002340043F00102FB681A60114BBB60BB681B688A
:1002440023F44032BB681A60BB681B6843F4003275
:10025400BB681A600B4B7B607B681B6823F00F0242
:100264007B681A60002318461C37BD465DF8047B82
:10027400704700BF0038024008380240303802405E
:1002840000000240240002400D488546AFF3008080
:100294000C480D490D4A002302E0D458C4500433DD
:1002A400C4188C42F9D30A4A0A4C002301E01360B3
:1002B4000432A242FBD300F011F8FFF789FFFEE7F6
:1002C40000800120000000200000002048030008F6
:1002D400000000201C000020FEE7000070B50D4D5A
:1002E4000D4C641BA4100026A64209D10B4D0C4CE6
:1002F40000F018F8641BA4100026A64205D170BDB6
:1003040055F8043B98470136EEE755F8043B984707
:100314000136F2E7400300084003000840030008E8
:1003240044030008F8B500BFF8BC08BC9E467047FB
:0C033400F8B500BFF8BC08BC9E4670473E
:04034000B9010008F7
:040344009501000817
:040000050800028D60
:00000001FF
